:100000000C945C000C9479000C9479000C947900A9
:100010000C9479000C9479000C9479000C9479007C
:100020000C9479000C9479000C9479000C9479006C
:100030000C9479000C9479000C9479000C9479005C
:100040000C9462010C9479000C9479000C94790062
:100050000C9479000C9479000C9479000C9479003C
:100060000C9479000C947900000000002400270013
:100070002A0000000000250028002B0004040404CE
:100080000404040402020202020203030303030342
:10009000010204081020408001020408102001021F
:1000A00004081020000000080002010000030407FB
:1000B000000000000000000011241FBECFEFD8E0B8
:1000C000DEBFCDBF11E0A0E0B1E0E0E1F7E002C0AB
:1000D00005900D92A030B107D9F721E0A0E0B1E082
:1000E00001C01D92A930B207E1F70E94AC010C9447
:1000F00086030C94000090E0FC01EC55FF4F349116
:10010000FC01E057FF4F2491FC01E458FF4FE491BC
:10011000EE2309F43BC0332339F1333091F038F446
:100120003130A9F0323001F584B58F7D12C03730FF
:1001300091F03830A1F03430B9F4809180008F7D97
:1001400003C0809180008F77809380000DC084B5BC
:100150008F7784BD09C08091B0008F7703C08091F4
:10016000B0008F7D8093B000F0E0EE0FFF1FEE58DF
:10017000FF4FA591B4918FB7F894EC91611103C032
:1001800020952E2301C02E2B2C938FBF0895CF9343
:10019000DF9390E0FC01E057FF4F2491FC01E4580D
:1001A000FF4F8491882361F190E0880F991FFC0133
:1001B000E859FF4FC591D491FC01EE58FF4FA5912E
:1001C000B491611109C09FB7F8948881209582236A
:1001D0008883EC912E230BC0623061F49FB7F894B2
:1001E0003881822F809583238883EC912E2B2C934A
:1001F0009FBF06C08FB7F894E8812E2B28838FBF4E
:10020000DF91CF9108953FB7F894809105019091C7
:100210000601A0910701B091080126B5A89B05C071
:100220002F3F19F00196A11DB11D3FBFBA2FA92F75
:10023000982F8827820F911DA11DB11DBC01CD01F2
:1002400042E0660F771F881F991F4A95D1F70895DE
:100250008F929F92AF92BF92CF92DF92EF92FF92D6
:100260006B017C010E9403014B015C01C114D104AC
:10027000E104F104F1F00E940301DC01CB018819D3
:100280009909AA09BB09883E9340A105B10570F3FD
:1002900021E0C21AD108E108F10888EE880E83E057
:1002A000981EA11CB11CC114D104E104F10419F77A
:1002B000DDCFFF90EF90DF90CF90BF90AF909F90F9
:1002C0008F9008951F920F920FB60F9211242F93C3
:1002D0003F938F939F93AF93BF9380910101909130
:1002E0000201A0910301B09104013091000123E0CB
:1002F000230F2D3720F40196A11DB11D05C026E85E
:10030000230F0296A11DB11D2093000180930101CE
:1003100090930201A0930301B09304018091050121
:1003200090910601A0910701B09108010196A11DCD
:10033000B11D8093050190930601A0930701B0932E
:100340000801BF91AF919F918F913F912F910F9095
:100350000FBE0F901F901895789484B5826084BD6D
:1003600084B5816084BD85B5826085BD85B58160B9
:1003700085BD80916E00816080936E001092810037
:1003800080918100826080938100809181008160F2
:1003900080938100809180008160809380008091B3
:1003A000B10084608093B1008091B000816080933F
:1003B000B00080917A00846080937A0080917A0006
:1003C000826080937A0080917A00816080937A00C5
:1003D00080917A00806880937A001092C10060E07A
:1003E0008FE00E94C70060E083E10E94C70061E0E7
:1003F0008EE00E94C70061E089E00E94C70061E0D2
:1004000083E00E94C70061E088E00E94C70061E0CD
:100410008AE00E94C70061E081E10E94C70061E0BC
:1004200080E10E94C70061E087E00E94C70061E0B0
:1004300086E00E94C70061E085E00E94C70061E09D
:1004400080E00E94C70061E081E00E94C70061E097
:1004500081E10E947B0061E080E10E947B0060E01E
:100460008AE00E947B0060E081E00E947B0061E006
:1004700089E00E947B0061E087E00E947B0060E0F1
:1004800086E00E947B0060E085E00E947B0061E0E6
:1004900083E00E94C700E7EAF0E0E491E33019F15D
:1004A00050F4E130D1F0E230E1F584B5806284BDF2
:1004B00084E188BD3AC0E73011F1E83049F1E43019
:1004C00081F58091800080628093800084E190E0DB
:1004D00090938B0080938A0028C084B5806884BD87
:1004E00084E187BD22C08091800080688093800075
:1004F00084E190E0909389008093880016C08091F9
:10050000B00080688093B00084E18093B3000DC098
:100510008091B00080628093B00084E18093B40049
:1005200004C060E083E00E947B008091B100887F7E
:1005300081608093B10060E089E00E947B0088EEDA
:10054000C82EDD24D394E12CF12C812C92E0992E3D
:10055000A12CB12CC0E0D0E027E4722E70927C0078
:1005600080917A00806480937A0080917A0086FD81
:10057000FCCF009178008091790010E0182B063FA5
:1005800081E018075CF561E08AE00E947B0061E091
:1005900088E00E947B0061E070E080E090E00E94D3
:1005A000280160E088E00E947B00C801110FAA0BBF
:1005B000BB0B9C01AD01325041095109A1E0BFEFD5
:1005C0000E945003A50194010E9423035095409579
:1005D000309521953F4F4F4F5F4F27C00B3082E042
:1005E00018075CF160E08AE00E947B0061E088E02F
:1005F0000E947B0061E070E080E090E00E942801B2
:1006000060E088E00E947B00A801110F660B770B69
:100610009A01AB01325041095109A1E0BFEF0E949C
:100620005003A70196010E942303CA01B90161503A
:100630007F4F8F4F9F4F0E942801209709F48ECF44
:100640000E9400008BCF052E97FB1EF400940E94A1
:100650003A0357FD07D00E94550307FC03D04EF420
:100660000C943A0350954095309521953F4F4F4F4C
:100670005F4F089590958095709561957F4F8F4F4E
:100680009F4F08950E947703A59F900DB49F900DF2
:10069000A49F800D911D11240895B7FF0C9442036F
:1006A0000E944203821B930B0895A1E21A2EAA1BFB
:1006B000BB1BFD010DC0AA1FBB1FEE1FFF1FA21712
:1006C000B307E407F50720F0A21BB30BE40BF50B0F
:1006D000661F771F881F991F1A9469F76095709598
:1006E000809590959B01AC01BD01CF010895A29F1B
:1006F000B001B39FC001A39F700D811D1124911DF6
:10070000B29F700D811D1124911D0895F894FFCFA3
:00000001FF
